:100000000C9462000C948A000C948A000C948A0070
:100010000C948A000C948A000C948A000C948A0038
:100020000C948A000C948A000C948A000C948A0028
:100030000C948A000C948A000C948A000C948A0018
:100040000C9447040C948A000C943A030C94140307
:100050000C948A000C948A000C948A000C948A00F8
:100060000C948B050C948A000000000024002700EB
:100070002A0000000000250028002B0000000000DE
:1000800023002600290004040404040404040202DA
:100090000202020203030303030301020408102007
:1000A0004080010204081020010204081020000012
:1000B0000008000201000003040700000000000027
:1000C0000000711111241FBECFEFD8E0DEBFCDBFFD
:1000D00011E0A0E0B1E0ECE6FEE202C005900D9276
:1000E000A438B107D9F726E0A4E8B1E001C01D9219
:1000F000A530B207E1F710E0C2E6D0E004C02197D6
:10010000FE010E945712C136D107C9F70E94010CA7
:100110000C9434170C940000FC01918D828D98177B
:1001200061F0828DDF01A80FB11D5D968C91928DDB
:100130009F5F9F73928F90E008958FEF9FEF0895D8
:10014000FC01918D828D981731F0828DE80FF11DA1
:10015000858D90E008958FEF9FEF0895FC01918DBC
:10016000228D892F90E0805C9F4F821B91098F73B5
:10017000992708958DE295E00E94AE0021E0892B39
:1001800009F420E0822F0895FC01848DDF01A80F7F
:10019000B11DA35ABF4F2C91848D90E001968F73AF
:1001A0009927848FA689B7892C93A089B1898C91CE
:1001B00080648C93938D848D981306C00288F38994
:1001C000E02D80818F7D80830895EF92FF920F93C1
:1001D0001F93CF93DF93EC0181E0888F9B8D8C8DF3
:1001E000981305C0E889F989808185FD24C0F62E21
:1001F0000B8D10E00F5F1F4F0F731127E02E8C8DBA
:10020000E8120CC00FB607FCFACFE889F9898081A3
:1002100085FFF5CFCE010E94C400F1CF8B8DFE018A
:10022000E80FF11DE35AFF4FF0820B8FEA89FB893B
:100230008081806207C0EE89FF896083E889F9893F
:1002400080818064808381E090E0DF91CF911F9175
:100250000F91FF90EF900895CF93DF93EC01888D7D
:100260008823C9F0EA89FB89808185FD05C0A889BA
:10027000B9898C9186FD0FC00FB607FCF5CF808140
:1002800085FFF2CFA889B9898C9185FFEDCFCE018A
:100290000E94C400E7CFDF91CF91089580E090E005
:1002A000892B29F00E94BA0081110C940000089556
:1002B000833081F028F4813099F08230A1F00895E4
:1002C0008730A9F08830B9F08430D1F48091800073
:1002D0008F7D03C0809180008F7780938000089588
:1002E00084B58F7702C084B58F7D84BD08958091D9
:1002F000B0008F7703C08091B0008F7D8093B000F5
:1003000008953FB7F8948091F2019091F301A09184
:10031000F401B091F50126B5A89B05C02F3F19F057
:100320000196A11DB11D3FBFBA2FA92F982F882775
:10033000820F911DA11DB11DBC01CD0142E0660FD0
:10034000771F881F991F4A95D1F7089521E001C0B2
:10035000220F6A95EAF7DC011C962C931C971A96DB
:100360005C934E931997ED91FC910084F185E02DFB
:1003700060E00994DC01ED91FC910284F385E02DAD
:1003800041E0099581E090E008950895089585ED94
:100390008093BC008091BC0084FDFCCF10920805C6
:1003A00008954091C601262F30E0240F311D2132DF
:1003B0003105DCF4209108052430C9F4FC0180E00B
:1003C00090E0861758F43091C6012191DC01AC55BC
:1003D000BE4FA30FB11D2C930196F3CF8091C601A0
:1003E000680F6093C60180E0089581E0089582E07F
:1003F00008950895E091EC018091EB01E81730F445
:10040000F0E0EC57FE4F808190E008958FEF9FEF72
:1004100008959091EC018091EB01981750F4E92F29
:10042000F0E0EC57FE4F208130E09F5F9093EC01AD
:1004300002C02FEF3FEFC90108958091EB0190E0DA
:100440002091EC01821B91090895CF92DF92EF92E7
:10045000FF920F931F93CF93DF937C01262F972F4B
:100460008A0180910905882391F0C62FD72F6E014C
:10047000C40ED51ECC15DD0571F06991D701ED9143
:10048000FC910190F081E02DC7010995F3CF642F15
:10049000822F0E94D101C801DF91CF911F910F914E
:1004A000FF90EF90DF90CF900895CF93DF931F924E
:1004B000CDB7DEB76983209109052223D1F02091C1
:1004C0002C05203240F021E030E0FC013383228310
:1004D00080E090E015C080910A05E82FF0E0E55F2C
:1004E000FA4F998190838F5F80930A0580932C0542
:1004F00005C061E0CE0101960E94D10181E090E04B
:100500000F90DF91CF910895FC0123812223B9F050
:100510009181909569236083828191E09093090590
:1005200080932B0510920A0510922C058AEC95E019
:100530000E9455020E94860B282F30E002C020E066
:1005400030E081E090E0232B11F080E090E008950E
:10055000EF92FF920F931F93CF938C01FC0175963E
:1005600084E0C0E060FF02C09081C92B6695815095
:1005700031968111F7CF413011F4F8014489F80127
:100580008585C82BC42B7801FEE0EF0EF11CF80125
:1005900062896C2BC7010E948402F8016289609510
:1005A0006C23C701CF911F910F91FF90EF900C9496
:1005B00084020F931F93CF93DF93062F0F70423067
:1005C00019F440E0602F10C0142F262FEC0130E00A
:1005D000B90184E0759567958A95E1F7CE010E948F
:1005E000A802412F602FCE01DF91CF911F910F9173
:1005F0000C94A802FC0184858823A9F0218532850A
:100600002115310519F4611106C007C021303105EB
:1006100021F4611102C0858701C015866585CF016F
:100620000E960C94840208951F920F920FB60F92AB
:1006300011242F933F934F935F936F937F938F93E7
:100640009F93AF93BF93EF93FF938DE295E00E944A
:10065000C400FF91EF91BF91AF919F918F917F91D6
:100660006F915F914F913F912F910F900FBE0F901F
:100670001F9018951F920F920FB60F9211242F936F
:100680008F939F93EF93FF93E0913D05F0913E058B
:100690008081E0914305F091440582FD12C0908174
:1006A000809146058F5F8F7320914705821751F027
:1006B000E0914605F0E0E35DFA4F958F80934605A3
:1006C00001C08081FF91EF919F918F912F910F90A9
:1006D0000FBE0F901F901895CF93DF93282F30E017
:1006E000F901E255FF4F8491F901E656FF4FD4918D
:1006F000F901EA57FF4FC491CC2391F081110E9478
:100700005801EC2FF0E0EE0FFF1FE458FF4FA591CA
:10071000B491EC91ED2381E090E021F480E002C0FF
:1007200080E090E0DF91CF9108951F93CF93DF9306
:10073000282F30E0F901E255FF4F8491F901E65688
:10074000FF4FD491F901EA57FF4FC491CC23C9F070
:10075000162F81110E945801EC2FF0E0EE0FFF1FC1
:10076000EE58FF4FA591B4918FB7F894111105C0C1
:100770009C91ED2FE095E92302C0EC91ED2BEC93D9
:100780008FBFDF91CF911F910895CF93DF9390E0BA
:10079000FC01E656FF4F2491FC01EA57FF4F84917C
:1007A000882361F190E0880F991FFC01E859FF4F01
:1007B000C591D491FC01EE58FF4FA591B491611100
:1007C00009C09FB7F8948881209582238883EC9193
:1007D0002E230BC0623061F49FB7F8943881822FCA
:1007E000809583238883EC912E2B2C939FBF06C08A
:1007F0008FB7F894E8812E2B28838FBFDF91CF919C
:1008000008958F929F92AF92BF92CF92DF92EF9214
:10081000FF926B017C010E9481014B015C01C114BC
:10082000D104E104F104F1F00E948101DC01CB016B
:1008300088199909AA09BB09883E9340A105B10509
:1008400070F321E0C21AD108E108F10888EE880EA1
:1008500083E0981EA11CB11CC114D104E104F10471
:1008600019F7DDCFFF90EF90DF90CF90BF90AF9062
:100870009F908F9008952FB7F8946091EE0170913A
:10088000EF018091F0019091F1012FBF08951F9227
:100890000F920FB60F9211242F933F938F939F9334
:1008A000AF93BF938091EE019091EF01A091F00181
:1008B000B091F1013091ED0123E0230F2D3720F4A9
:1008C0000196A11DB11D05C026E8230F0296A11DAA
:1008D000B11D2093ED018093EE019093EF01A09361
:1008E000F001B093F1018091F2019091F301A09198
:1008F000F401B091F5010196A11DB11D8093F201A3
:100900009093F301A093F401B093F501BF91AF91DF
:100910009F918F913F912F910F900FBE0F901F903D
:100920001895DC01ED91FC910284F385E02D40E007
:10093000099461E00E9491048BE39FE10197F1F734
:1009400008950F931F93CF93DF93EC01423018F07B
:100950008C8188608C834F836887222329F0413003
:1009600019F48C8184608C8364E670E080E090E010
:100970000E9401046C8164FD31C0E881F981028428
:10098000F385E02D42E063E0CE0109958BE496E427
:100990000197F1F7E881F9810284F385E02D42E0C7
:1009A00063E0CE01099503E512E0C8010197F1F774
:1009B000E881F9810284F385E02D42E063E0CE0115
:1009C0000995C8010197F1F7E881F9810284F3855F
:1009D000E02D42E062E0CE01099517C06062CE01D1
:1009E0000E9491048BE496E40197F1F76C816062B8
:1009F000CE010E94910403E512E0C8010197F1F7CE
:100A00006C816062CE010E949104C8010197F1F7E8
:100A10006C816062CE010E9491048BEE90E00197A0
:100A2000F1F784E08D836CE0CE010E949104CE0149
:100A30000E94990482E08E8366E0CE010E949104B8
:100A4000E881F9810084F185E02D6FEFCE01DF911F
:100A5000CF911F910F910994EF92FF920F931F93E3
:100A6000CF93DF93EC01062FF42EE22E8B85888B3B
:100A70001092EC011092EB0110920A0510922C05D5
:100A80001092080511E0109307051092E20461E04E
:100A900082E10E94950361E083E10E9495038091C9
:100AA000B9008E7F8093B9008091B9008D7F8093CB
:100AB000B90088E48093B80085E48093BC008889FD
:100AC0001093090580932B0510920A0510922C05AE
:100AD0000E94860B91E0811190E0998B992329F077
:100AE0008AEC95E00E9409028E878989882339F073
:100AF0001F861C8260E0CE010E960E9484022E2D7D
:100B00004F2D602FCE01DF91CF911F910F91FF905C
:100B1000EF900C94A1041F920F920FB60F92112424
:100B20002F933F934F935F936F937F938F939F93F5
:100B3000AF93BF93EF93FF938091B900887F803686
:100B400009F49CC068F5883209F45BC090F48031E8
:100B500009F454C038F4882309F4F6C0883009F445
:100B60004DC0F6C0883109F44CC0803209F45DC034
:100B7000EFC0803409F468C048F4803309F455C0EC
:100B8000883309F0E5C080930605D8C0803509F4A4
:100B90004FC0883509F45DC0883409F0D9C0D6C08B
:100BA000883909F4C7C0A8F4883709F467C038F455
:100BB000883609F463C0803709F460C0C9C088383A
:100BC00009F4B8C0803909F45FC0803809F0C0C0AA
:100BD0005BC0803B09F486C038F4803A09F466C0F3
:100BE000883A09F47FC0B4C0803C09F4A7C0883CAF
:100BF00009F4A4C0883B09F48AC0AAC08091E30428
:100C000010C09091050580910405981770F5E0914A
:100C1000050581E08E0F80930505F0E0EC51FB4F58
:100C200080818093BB0085EC86C0809306058EC0D2
:100C3000E091050581E08E0F809305058091BB0052
:100C4000F0E0EC51FB4F8083909105058091040505
:100C50006EC0E091050581E08E0F809305058091BF
:100C6000BB00F0E0EC51FB4F8083809107058111C0
:100C70006DC081E08093E20484EA61C083E08093E8
:100C800008051092EA01CFCF8091EA01803208F086
:100C900051C0E091EA0181E08E0F8093EA018091DA
:100CA000BB00F0E0E653FE4F8083BDCF85EC809320
:100CB000BC00109208058091EA01803230F4E09186
:100CC000EA01F0E0E653FE4F10826091EA0170E025
:100CD000E091C801F091C9018AEC91E00995109268
:100CE000EA0136C084E0809308051092C701109293
:100CF000C601E091C401F091C50109958091C6013A
:100D0000811105C081E08093C6011092A401E09199
:100D1000C70181E08E0F8093C701F0E0EC55FE4FD4
:100D200080818093BB009091C7018091C601981784
:100D300008F479CF85E88093BC000AC085EC8093E5
:100D4000BC001092080504C0109206050E94C7015D
:100D5000FF91EF91BF91AF919F918F917F916F9193
:100D60005F914F913F912F910F900FBE0F901F9069
:100D700018951F93CF93DF9300D0CDB7DEB75A837A
:100D8000498391E09093090580932B0510920A0501
:100D900010922C058AEC95E00E94550219816A8117
:100DA0008AEC95E00E945502612F8AEC95E00E9442
:100DB00055020E94860B91E0811190E0892F0F90DF
:100DC0000F90DF91CF911F9108952F923F924F92F4
:100DD0005F926F927F928F929F92AF92BF92CF92CB
:100DE000DF92EF92FF920F931F93CF93DF93CDB7D4
:100DF000DEB728970FB6F894DEBF0FBECDBFD82E52
:100E0000C62E4887190178010E943B042B013C0142
:100E10008D2C880C912C10E001E04885A42EB12C7B
:100E2000970140E050E02B833C834D835E834885EF
:100E3000941608F09EC000930905D0922B051092DD
:100E40000A0510922C056C2D8AEC95E00E94550243
:100E50000E94860B00930905D0922B0510920A057B
:100E600010922C05809108058111FCCF950129195C
:100E700031092132310514F020E230E02F83213294
:100E800010F030E23F8300930805009307054FEF11
:100E900040930605109205058F81815080930405CB
:100EA0000093E3048091E30488298093E304809114
:100EB000E204813071F41092E2048091E3048093A3
:100EC000BB008091BC0083FDF8CF55EC5093BC0073
:100ED00003C085EE8093BC00809108058130E1F36A
:100EE000809105052F81821718F4309105053F8305
:100EF000A4EEB4E0E4E8F1E08E2F44E851E0841B76
:100F00005F81851718F48D918193F6CF1092EC01D3
:100F10005093EB018091EC012F81281721F1E1140E
:100F2000F10481F49101210F311D17FD3A953A83A7
:100F300029838AEC95E00E940902A981BA818C93E9
:100F40001F5FE8CF0E943B04DC01CB0184199509A7
:100F5000A609B7092B813C814D815E8182179307D9
:100F6000A407B507F8F28885813208F080E2980E70
:100F70005ECFE114F104D9F00E943B04AB01BC0147
:100F80004419550966097709C701A0E0B0E0481780
:100F900059076A077B0758F05885852F90E0212F65
:100FA000012E000C330B281739070CF41FEF812F8B
:100FB00028960FB6F894DEBF0FBECDBFDF91CF915C
:100FC0001F910F91FF90EF90DF90CF90BF90AF9067
:100FD0009F908F907F906F905F904F903F902F9059
:100FE0000895BF92CF92DF92EF92FF920F931F93DB
:100FF000CF93DF9300D0CDB7DEB7F82EE62EC42E08
:10100000B22ED02E08EE13E09E012E5F3F4F41E03E
:101010000E94E506882349F14C2D50E04B195109F7
:101020004F5F5F4F21E030E002C0220F331FBA94C0
:10103000E2F721503109042E01C0220F0A94EAF789
:101040008D2D01C0880F4A95EAF7322F30959A818D
:1010500093232823292B2A832983AE014F5F5F4FD7
:101060006E2D8F2D0E94E30B01C080E00F900F903A
:10107000DF91CF911F910F91FF90EF90DF90CF9074
:10108000BF9008954F925F926F927F928F929F923E
:10109000AF92BF92CF92DF92EF92FF92CF93DF9306
:1010A0004A015B019C01220F331F220F331FD9011C
:1010B000AA59BB4FCD90DD90ED90FC901397E901BC
:1010C000C25BDB4F49E1489FF001499FF00D1124BD
:1010D000EC0DFD1DEE0FFF1FEE0FFF1FEA50FE4F40
:1010E000488159816A817B81408051806280738010
:1010F0004419550966097709CB01BA01680D791DB4
:101100008A1D9B1D688379838A839B838082918259
:10111000A282B3824FEFC41AD40AE40AF40A49E166
:10112000C416D104E104F10434F4CD92DD92ED92C1
:10113000FC92139705C01D921D921D921C9213974D
:10114000E901C258DB4F29E130E040E050E00E9465
:101150002412288339834A835B83DF91CF91FF90E8
:10116000EF90DF90CF90BF90AF909F908F907F9047
:101170006F905F904F900895CF92DF92EF92FF9221
:101180000F931F93CF93DF936C017A018B01C0E023
:10119000D0E0CE15DF0589F0D8016D918D01D60123
:1011A000ED91FC910190F081E02DC6010995892B0C
:1011B00011F47E0102C02196ECCFC701DF91CF91DF
:1011C0001F910F91FF90EF90DF90CF9008950E94B4
:1011D0006E15FC01808191810C940C140F931F9368
:1011E000CF93DF93EC0188819981009729F02A81C0
:1011F0003B812617370788F48B016F5F7F4F0E9472
:10120000A414009761F0998388831B830A832C813F
:101210003D81232B11F4FC01108281E001C080E0AC
:10122000DF91CF911F910F910895CF93DF93EC0140
:1012300088819981009711F00E940C1419821882FC
:101240001D821C821B821A82DF91CF910895EF923A
:10125000FF920F931F93CF93DF93EC01FB018481E7
:101260009581E080F1800C811D81E114F104B1F0E1
:101270000097B9F0080F191FB801CE010E94EE08BF
:10128000882361F0288139818C819D81B701820F8B
:10129000931F0E947C151D830C8303C0CE010E9406
:1012A0001509CE01DF91CF911F910F91FF90EF9023
:1012B0000895EF92FF920F931F93CF93DF93EC016A
:1012C000198218821B821A821D821C826115710587
:1012D00021F18B01FB0101900020E9F731977F019B
:1012E000E61AF70AB7010E94EE08811109C0CE0183
:1012F000DF91CF911F910F91FF90EF900C94150902
:10130000FD82EC82B80188819981DF91CF911F9194
:101310000F91FF90EF900C947C15DF91CF911F916E
:101320000F91FF90EF900895CF92DF92EF92FF928E
:101330000F931F93CF93DF93CDB7DEB762970FB6AE
:10134000F894DEBF0FBECDBF8C01CB01F801118236
:101350001082138212821582148250E09E012F5F48
:101360003F4F6901B9010E948315F60101900020E9
:10137000E9F731977F01EC18FD08B701C8010E9419
:10138000EE08811104C0C8010E94150908C0F801C7
:10139000F582E482B601808191810E947C1562967B
:1013A0000FB6F894DEBF0FBECDBFDF91CF911F9176
:1013B0000F91FF90EF90DF90CF9008956115710528
:1013C00079F0FB0101900020E9F73197AF01461B4E
:1013D000570BDC01ED91FC910280F381E02D099423
:1013E00080E090E008950F931F93CF93DF930FEE6B
:1013F00015E061E0F80181810E94C503C3ECD0E0F3
:10140000CE010197F1F760E0F80180810E94C503E9
:10141000CE010197F1F760E0F80181810E94C503D8
:101420002197F1F7DF91CF911F910F91089561E01E
:101430008091F0050E94C50383EC90E00197F1F7DD
:101440000895EF92FF920F931F93CF93DF93082F8E
:1014500018E083ECE82EF12C61E08091EF050E940A
:10146000C503C7010197F1F700FF02C060E001C0AA
:1014700061E08091F0050E94C503C3ECD0E0C70194
:101480000197F1F760E08091EF050E94C503C70165
:101490000197F1F706951150F9F661E08091EF059B
:1014A0000E94C50360E08091F0050E94C503CE0153
:1014B0000197F1F760E08091EF050E94C503219745
:1014C000F1F78091F0050E946C03182F811105C07F
:1014D00061E08091F0050E94C503C3ECD0E0CE012D
:1014E0000197F1F761E08091EF050E94C503219714
:1014F000F1F781E0111101C080E0DF91CF911F91E0
:101500000F91FF90EF9008958F929F92AF92BF92AC
:101510000F931F93CF93DF93CDB7DEB7A1970FB68D
:10152000F894DEBF0FBECDBF19A2423008F44AE0E6
:101530008E010F5D1F4F842E912CA12CB12CA50183
:1015400094010E940212E62FB901CA01015011094B
:10155000EA3014F4E05D01C0E95CD801EC93232B80
:10156000242B252B61F7B8018DE295E00E94DE095E
:10157000A1960FB6F894DEBF0FBECDBFDF91CF911D
:101580001F910F91BF90AF909F908F900895CF9231
:10159000DF92EF92FF92CF93DF936B017C01E0919A
:1015A0002D05F0912E050190F081E02D6DE28DE288
:1015B00095E00995EC0166277727CB016C197D0929
:1015C0008E099F094AE00E94840A8C0F9D1FDF91BB
:1015D000CF91FF90EF90DF90CF900895BC01990FCD
:1015E000880B990B97FD0C94C70A4AE00C94840A67
:1015F000CF93DF930E94170A80E40E94210A0E9481
:10160000F3090E94170A80EC0E94210ACAE0D1E087
:1016100088810E94210A89810E94210A8A810E9470
:10162000210A8B810E94210A0E94F3090E94170A55
:101630008091F1058F7080580E94210ADF91CF912F
:101640000C94F309FC01448155816081718186ED20
:1016500095E00C94BC080F931F93CF93DF93EC019C
:101660000C811D810F5F1F4FB8010E94EE08882377
:1016700069F0288139818C819D8161E871E0820F58
:10168000931F0E947C151D830C8303C0CE010E9412
:101690001509CE01DF91CF911F910F910895CF933E
:1016A000DF93CDB7DEB728970FB6F894DEBF0FBE35
:1016B000CDBF1D8290E49E8324E12F8324E52887FB
:1016C00019829A8390E19B8390E59C832091DD05AC
:1016D000821710F08FEF820F3091DE0590E0FE014F
:1016E000E80FF91F303121F4243011F4618101C079
:1016F0006581606886ED95E028960FB6F894DEBFA8
:101700000FBECDBFDF91CF910C94910420912C0599
:1017100090912B05213208F04AC080910805811173
:10172000FCCF32E03093080531E0309307053FEFFE
:10173000309306051092050520930405ABE0B5E053
:1017400044EE54E0FA013E2F341B321718F43D9159
:101750003193F9CF1092E3042091E304990F922B77
:101760009093E3049091E204913061F41092E204CA
:101770009091E3049093BB009091BC0093FDF8CF4F
:1017800095EC01C095EE9093BC00909108059230C5
:10179000E1F3909106059F3F79F080910605803234
:1017A00041F080910605803331F084E005C081E08E
:1017B00003C082E001C083E010920A0510922C055C
:1017C000109209050895CF93DF93EA0191E0909379
:1017D000090580932B0510920A0510922C058AECBE
:1017E00095E00E94550268818AEC95E00E945502BE
:1017F0000E94860B91E0811190E0892FDF91CF91BB
:101800000895CF93DF93CDB7DEB72E970FB6F89438
:10181000DEBF0FBECDBF789484B5826084BD84B531
:10182000816084BD85B5826085BD85B5816085BDDB
:1018300080916E00816080936E0010928100809193
:10184000810082608093810080918100816080931B
:101850008100809180008160809380008091B10040
:1018600084608093B1008091B00081608093B0006B
:1018700080917A00846080937A0080917A008260FF
:1018800080937A0080917A00816080937A008091C1
:101890007A00806880937A001092C10020E042E0D4
:1018A00060E186ED95E00E942C05E091D605F0916F
:1018B000D7050084F185E02D6FEF86ED95E0099561
:1018C00080E00E944F0B66E571E086ED95E00E9496
:1018D000DE0968EE73E080E090E00E94010486ED8E
:1018E00095E00E949904E0913D05F0913E0582E06B
:1018F0008083E0913905F0913A051082E0913B0533
:10190000F0913C0580E1808310924505E09141050E
:10191000F091420586E08083E0913F05F09140051B
:10192000808180618083E0913F05F0914005808156
:1019300088608083E0913F05F09140058081806858
:101940008083E0913F05F091400580818F7D808309
:1019500001E023E042E06BE68091F2050E94F1078E
:1019600000E022E044E06BE18091F2050E94F10783
:1019700022E044E06CE18091F2050E94F107F090D2
:10198000F20508EE13E09E012F5F3F4F41E06BE64A
:101990008F2D0E94E50699819F7B99839D87AE01DB
:1019A000435F5F4F6BE68F2D0E94E30B44EB5BEFD1
:1019B00063E18091F2050E94B9064FE051E065E1D4
:1019C0008091F2050E94B90644EC5FEF67E18091D7
:1019D000F2050E94B90643E356EF66E08091F205F6
:1019E0000E94B9064BE95FEF68E08091F2050E9422
:1019F000B9064DE953E06AE08091F2050E94B9060C
:101A000062E084E00E94C50362E085E00E94C503B5
:101A100062E086E00E94C50362E087E00E94C503A1
:101A200061E088E00E94C50361E08DE00E94C5038B
:101A3000E6E6F4E06EE4E62E64E0F62E46E954E0D5
:101A40006EE774E026EF31E011921192119211923B
:101A5000D7011D921D921D921D927D01DA011D92EA
:101A60001D921D921D92AD01DB011D921D921D92D2
:101A70001D92BD0180E090E08901080F191FD80177
:101A80001D921D921D921C92139704968436910507
:101A900099F72C593F4FB4E0EE37FB07A9F68FE0DA
:101AA00090E00E94E7168A3A61F552EBE52E54E089
:101AB000F52E00E110E0F70111821082C8010E94AA
:101AC000E716C82ED12CD701CD92DC92C801019621
:101AD0000E94E716282F30E0220F331F2C293D29C2
:101AE000F701219331937F010E5F1F4F06311105DE
:101AF00011F7BB24B39489E3A82E9AE0C92ED12C08
:101B000091C16AEA8FE090E00E94EF1600E110E0D8
:101B100060E0C8010E94EF160F5F1F4F0C311105E6
:101B2000B9F7E7CF80E0682F88E00E949503112382
:101B300009F481C18DE00E946C03682F8DE00E9442
:101B40009503E0900801F090090184E00E946C0385
:101B5000E816F90609F071C1E0900601F09007015E
:101B600085E00E946C03E816F90609F07FC1E09059
:101B70000401F090050186E00E946C03E816F90666
:101B800009F084C1009100011091010187E00E94D9
:101B90006C030817190709F0DFC108EE13E023EF03
:101BA00035E04EE06BE38091F2050E94E50660911E
:101BB000F30570E0762F66278091F405682B20915D
:101BC000F50530E0322F22278091F605282B8091F1
:101BD000F70590E0982F88274091F805842B4091D5
:101BE000FB0550E0542F4427E091FC054E2B509309
:101BF000BD044093BC04E091FD05F0E0FE2FEE270C
:101C0000A091FE05EA2BF093BB04E093BA04E091A7
:101C1000FF05F0E0FE2FEE27A0910006EA2BF093DF
:101C2000B904E093B804E091B204F091B3046E0FEC
:101C30007F1F7093C3046093C2046091B4047091D9
:101C4000B504260F371F3093C1042093C0042091A0
:101C5000B6043091B704820F931F9093BF04809312
:101C6000BE04052E000C660B770B80E090E00E940E
:101C700042084091BA045091BB04052E000C660B3B
:101C8000770B81E090E00E9442084091B8045091A7
:101C9000B904052E000C660B770B82E090E00E94E1
:101CA00042084091C2045091C304052E000C660BFB
:101CB000770B83E090E00E9442084091C00450916D
:101CC000C104052E000C660B770B84E090E00E94A7
:101CD00042084091BE045091BF04052E000C660BD3
:101CE000770B85E090E00E94420860918A04709131
:101CF0008B0480918C0490918D040E94CA1520E081
:101D000038EE40E856E40E94CA1220E030E044EB8E
:101D100052E40E9429166093D2047093D3048093F6
:101D2000D4049093D50460918E0470918F048091B7
:101D30009004909191040E94CA1520E038EE40E88A
:101D400056E40E94CA1220E030E044EB52E40E94C4
:101D500029166093D6047093D7048093D804909387
:101D6000D9046091920470919304809194049091AD
:101D700095040E94CA1520E038EE40E856E40E941F
:101D8000CA1220E030E044EB52E40E94291660932E
:101D9000DA047093DB048093DC049093DD0480917B
:101DA000E10481111AC18091DE04882309F4D1C1B4
:101DB00084E790E40E94EE0A6CE771E08DE295E022
:101DC0000E94DE0960918A0470918B0480918C04DA
:101DD00090918D0497FF81C20E94C70A6CE771E061
:101DE0008DE295E00E94DE098091C2049091C304C7
:101DF0000E94EE0A6CE771E08DE295E00E94DE0938
:101E00008CE89FEB0E94EE0A6CE771E08DE295E0B2
:101E10000E94DE096EE771E08DE295E00E94DE0926
:101E20000E944E011091E104112309F47BCE88E059
:101E30000E946C0378CE80E080CE84E00E946C0328
:101E40009093090180930801892B09F485CE81E0E4
:101E500090E02091DF043091E004232B11F080E02A
:101E600090E09093E0048093DF0476CE85E00E94BA
:101E70006C039093070180930601892B09F477CEB8
:101E80008091DE048B258093DE0471CE86E00E9473
:101E90006C039093050180930401892B09F472CEA1
:101EA0001B251093E10486ED95E00E949904809132
:101EB000E104882309F466CE6091D2047091D304C2
:101EC0008091D4049091D5040E9443136093C6047A
:101ED0007093C7048093C8049093C9046091D6049A
:101EE0007091D7048091D8049091D9040E94431333
:101EF0006093CA047093CB048093CC049093CD0478
:101F00006091DA047091DB048091DC049091DD042F
:101F10000E9443136093CE047093CF048093D00447
:101F20009093D1048091DF049091E0049093030199
:101F300080930201880F991F880F991FFC01EE52B0
:101F4000FB4F60817181828193810E943C13709369
:101F5000C5046093C40416CE87E00E946C0390937E
:101F6000010180930001892B09F417CE42EBE42E86
:101F700044E0F42E00E010E020E0211105C0809143
:101F8000C2049091C3040BC0213029F48091C00495
:101F90009091C10404C08091BE049091BF04662753
:101FA0007727681B790B4701D7016D937D937D01DE
:101FB000C80140962E870E94EF16F401608171815E
:101FC00075956795C80141960E94EF162E852F5F83
:101FD0000E5F1F4F233089F6E0CD80E00E944F0B4B
:101FE0006091D2047091D3048091D4049091D5046F
:101FF0000E943C132091C6043091C704621B730BEE
:102000004AE0CE0101960E9494096AE671E0CE0191
:1020100007960E945909BE016F5F7F4FCE01079658
:102020000E9427090E942B0B0E94220BCE010796CB
:102030000E94E908CE0101960E94E90881E00E9411
:102040004F0B6091D6047091D7048091D804909181
:10205000D9040E943C132091CA043091CB04621B26
:10206000730B4AE0CE0101960E9494096FE671E07D
:10207000CE0107960E945909BE016F5F7F4FCE01C6
:1020800007960E9427090E942B0B0E94220BCE016B
:1020900007960E94E908CE0101960E94E908809106
:1020A0000201909103019093E0048093DF04880F74
:1020B000991F880F991F8C010E521B4F6091C40409
:1020C0007091C504072E000C880B990B0E94CA154D
:1020D0009B01AC01D8016D917D918D919C910E94E5
:1020E0005D120E943C138B01A0920A01212F221F36
:1020F0002227221F2295220F220F207C20930B01E2
:102100009B0177FF04C022273327261B370BC90109
:10211000B6010E94EE116F70E62FF0E0EA5EFE4F0E
:10212000208120930C01FC01EA5EFE4F80818093A8
:102130000D010E94F80AFF24F394012B09F0F12C01
:102140006F2D88E00E9495036F2D8DE00E9495030E
:102150002ACE8091E10481112BCE0E943B04009194
:10216000AE041091AF042091B0043091B104601717
:1021700071078207930709F460C080E00E944F0B4B
:102180006091D2047091D3048091D4049091D504CD
:102190000E943C134AE0CE0101960E94940964E734
:1021A00071E0CE0107960E945909BE016F5F7F4F13
:1021B000CE0107960E9427090E942B0B0E94220B3A
:1021C000CE0107960E94E908CE0101960E94E90817
:1021D00081E00E944F0B6091D6047091D7048091EA
:1021E000D8049091D9040E943C134AE0CE01019694
:1021F0000E94940968E771E0CE0107960E94590990
:10220000BE016F5F7F4FCE0107960E9427090E9493
:102210002B0B0E94220BCE0107960E94E908CE01EB
:1022200001960E94E9080E943B046093AE047093FB
:10223000AF048093B0049093B1040091DF04109137
:10224000E004F801EE0FFF1FEE0FFF1FEE52FB4FF1
:10225000408051806280738020E030E0A901C3019A
:10226000B2010E94721318161CF4C301B20103C01C
:10227000C301B20190580E943C137B010F70E02F04
:10228000F0E0EA5EFE4F808180930A0120E030E0BA
:10229000A901C301B2010E94C315881F8827881FA6
:1022A0008295880F880F807C80930B01C701B6014F
:1022B0000E94EE116F70E62FF0E0EA5EFE4F908113
:1022C00090930C018F70E82FF0E0EA5EFE4F808162
:1022D00080930D010E94F80A6BCD4AE00E94840AA7
:1022E0007DCD1F93CF93DF93EDE2F5E01382128251
:1022F00088EE93E0A0E0B0E084839583A683B78363
:102300002AE231E03183208325EC30E035872487D1
:1023100024EC30E03787268720EC30E0318B208BAF
:1023200021EC30E0338B228B22EC30E0358B248B98
:1023300026EC30E0378B268B118E128E138E148E86
:10234000EAECF5E01382128284839583A683B78337
:102350008AE391E09183808388E68093F205CFEE53
:10236000D5E012E0188383E0898360E082E00E9478
:10237000C50360E089810E94C50360E088810E94F6
:10238000950360E089810E949503E6EDF5E01382F4
:1023900012828AE491E091838083108A8FEF87878D
:1023A0001686118A87E2838714861586128611861F
:1023B00084E0828B138B81E0848B80E1858B80E2CB
:1023C000868B80E4878B80E8808F40E050E063E07C
:1023D000CF01DF91CF911F910C94A60197FB072E9F
:1023E00016F4009407D077FD09D00E94431207FC31
:1023F00005D03EF4909581959F4F08957095619515
:102400007F4F0895A1E21A2EAA1BBB1BFD010DC030
:10241000AA1FBB1FEE1FFF1FA217B307E407F50794
:1024200020F0A21BB30BE40BF50B661F771F881F70
:10243000991F1A9469F760957095809590959B0106
:10244000AC01BD01CF010895052E97FB1EF4009449
:102450000E943B1257FD07D00E94021207FC03D0D6
:102460004EF40C943B1250954095309521953F4F7A
:102470004F4F5F4F089590958095709561957F4F70
:102480008F4F9F4F0895AA1BBB1B51E107C0AA1F86
:10249000BB1FA617B70710F0A61BB70B881F991F05
:1024A0005A95A9F780959095BC01CD010895EE0F3E
:1024B000FF1F0590F491E02D09945058BB27AA27DF
:1024C0000E9475120C94AD160E949F1638F00E945F
:1024D000A61620F039F49F3F19F426F40C949C16AC
:1024E0000EF4E095E7FB0C949616E92F0E94BE16B9
:1024F00058F3BA17620773078407950720F079F439
:10250000A6F50C94E0160EF4E0950B2EBA2FA02D34
:102510000B01B90190010C01CA01A0011124FF2790
:10252000591B99F0593F50F4503E68F11A16F0408B
:10253000A22F232F342F4427585FF3CF469537958A
:102540002795A795F0405395C9F77EF41F16BA0B4F
:10255000620B730B840BBAF09150A1F0FF0FBB1FFD
:10256000661F771F881FC2F70EC0BA0F621F731F46
:10257000841F48F4879577956795B795F7959E3FA3
:1025800008F0B0CF9395880F08F09927EE0F979534
:10259000879508950E94DE120C94AD160E94A6162F
:1025A00058F00E949F1640F029F45F3F29F00C94E8
:1025B000961651110C94E1160C949C160E94BE16AE
:1025C00068F39923B1F3552391F3951B550BBB2762
:1025D000AA2762177307840738F09F5F5F4F220FA7
:1025E000331F441FAA1FA9F335D00E2E3AF0E0E89E
:1025F00032D091505040E695001CCAF72BD0FE2FE8
:1026000029D0660F771F881FBB1F2617370748077B
:10261000AB07B0E809F0BB0B802DBF01FF27935833
:102620005F4F3AF09E3F510578F00C9496160C944B
:10263000E1165F3FE4F3983ED4F38695779567956E
:10264000B795F7959F5FC9F7880F911D9695879568
:1026500097F90895E1E0660F771F881FBB1F621787
:1026600073078407BA0720F0621B730B840BBA0B45
:10267000EE1F88F7E09508950E9443136894B11106
:102680000C94E11608950E94C61688F09F5798F0A2
:10269000B92F9927B751B0F0E1F0660F771F881F67
:1026A000991F1AF0BA95C9F714C0B13091F00E9481
:1026B000E016B1E008950C94E016672F782F882774
:1026C000B85F39F0B93FCCF3869577956795B395A8
:1026D000D9F73EF490958095709561957F4F8F4F17
:1026E0009F4F08950E94051608F48FEF0895CF9329
:1026F000DF938230910510F482E090E0E0910306D0
:10270000F091040620E030E0C0E0D0E0309711F115
:102710004081518148175907C0F04817590761F4A3
:1027200082819381209719F09B838A832BC0909399
:1027300004068093030626C02115310519F04217BF
:10274000530718F49A01BE01DF01EF010280F38103
:10275000E02DDCCF2115310509F1281B390B243080
:10276000310590F412968D919C9113976115710526
:1027700021F0FB019383828304C09093040680932D
:102780000306FD01329644C0FD01E20FF31F819361
:102790009193225031092D933C933AC02091010628
:1027A00030910206232B41F4209110013091110148
:1027B000309302062093010620910E0130910F0103
:1027C0002115310541F42DB73EB7409112015091CA
:1027D0001301241B350BE0910106F0910206E2176C
:1027E000F307A0F42E1B3F0B2817390778F0AC0134
:1027F0004E5F5F4F2417350748F04E0F5F1F509311
:102800000206409301068193919302C0E0E0F0E05C
:10281000CF01DF91CF9108950F931F93CF93DF9353
:10282000009709F48CC0FC01329713821282009148
:102830000306109104060115110581F420813181F0
:10284000820F931F20910106309102062817390745
:1028500079F5F0930206E093010671C0D80140E0DB
:1028600050E0AE17BF0750F412962D913C9113978C
:10287000AD012115310509F1D901F3CF9D01DA012F
:102880003383228360817181860F971F821793079C
:1028900069F4EC0128813981260F371F2E5F3F4FE5
:1028A000318320838A819B8193838283452B29F402
:1028B000F0930406E093030642C01396FC93EE9354
:1028C0001297ED01499159919E01240F351FE2178E
:1028D000F30771F480819181840F951F0296119600
:1028E0009C938E938281938113969C938E931297DF
:1028F000E0E0F0E0D80112968D919C91139700973B
:1029000019F0F8018C01F6CF8D919C9198012E5F02
:102910003F4F820F931F2091010630910206281726
:10292000390769F4309729F41092040610920306CF
:1029300002C0138212821093020600930106DF91F7
:10294000CF911F910F910895A0E0B0E0EAEAF4E181
:102950000C940117EC01009721F4CB010E9477132E
:10296000B8C0FC01E60FF71F9C0122503109E217A5
:10297000F30708F4ACC0D9010D911C91119706170B
:102980001707B0F00530110508F49FC0C80104977F
:102990008617970708F499C002501109061B170BF8
:1029A000019311936D937C93CF010E940C148DC001
:1029B0005B01A01AB10A4C01800E911EA091030682
:1029C000B091040640E050E0E12CF12C109709F49E
:1029D0004AC0A815B905D1F56D907C901197630197
:1029E00082E0C80ED11CCA14DB0480F1A3014A198D
:1029F0005B096A0182E0C80ED11C1296BC90129746
:102A00001396AC91B5E0CB16D10440F0B282A3830B
:102A100051834083D9016D937C930AC00E5F1F4F91
:102A2000C301800F911FF90191838083EB2DFA2F51
:102A3000E114F10431F0D7011396FC93EE93129751
:102A400044C0F0930406E09303063FC08D919C912F
:102A500011974817590708F4AC017D0112960D90A3
:102A6000BC91A02DB3CF80910106909102068815EC
:102A70009905E1F446175707C8F480910E0190912B
:102A80000F01009741F48DB79EB74091120150910C
:102A90001301841B950BE817F907C8F4F09302069D
:102AA000E0930106F901718360830FC0CB010E949E
:102AB00077137C01009759F0A801BE010E9473159D
:102AC000CE010E940C14C70104C0CE0102C080E0F8
:102AD00090E0CDB7DEB7EEE00C941D1781E090E0FA
:102AE000F8940C943417FB01DC0102C001900D92A4
:102AF00041505040D8F70895FB01DC0101900D9240
:102B00000020E1F708954532510520F4423010F0DD
:102B10000C948E15FB011082CB010895BB274A301F
:102B200031F4992322F4BDE2909581959F4F0C9446
:102B30009A15BB27FB015527AA27880F991FAA1FA3
:102B4000A41710F0A41B83955051B9F7A05DAA33C8
:102B500008F0A95DA193009779F7B111B193119293
:102B6000CB010C94B315DC01FC01672F7191772325
:102B7000E1F7329704C07C916D9370836291AE1738
:102B8000BF07C8F308950E94051608F481E0089570
:102B9000E89409C097FB3EF49095809570956195F7
:102BA0007F4F8F4F9F4F9923A9F0F92F96E9BB27AD
:102BB0009395F695879577956795B795F111F8CF29
:102BC000FAF4BB0F11F460FF1BC06F5F7F4F8F4F94
:102BD0009F4F16C0882311F096E911C0772321F08A
:102BE0009EE8872F762F05C0662371F096E8862F22
:102BF00070E060E02AF09A95660F771F881FDAF779
:102C0000880F9695879597F90895990F0008550FA5
:102C1000AA0BE0E8FEEF16161706E807F907C0F062
:102C200012161306E407F50798F0621B730B840B6A
:102C3000950B39F40A2661F0232B242B252B21F444
:102C400008950A2609F4A140A6958FEF811D811DE4
:102C500008950E943C160C94AD160E949F1638F001
:102C60000E94A61620F0952311F00C9496160C9451
:102C70009C1611240C94E1160E94BE1670F3959FC9
:102C8000C1F3950F50E0551F629FF001729FBB2763
:102C9000F00DB11D639FAA27F00DB11DAA1F649FFF
:102CA0006627B00DA11D661F829F2227B00DA11DB2
:102CB000621F739FB00DA11D621F839FA00D611D38
:102CC000221F749F3327A00D611D231F849F600D59
:102CD000211D822F762F6A2F11249F5750409AF082
:102CE000F1F088234AF0EE0FFF1FBB1F661F771F0E
:102CF000881F91505040A9F79E3F510580F00C94D9
:102D000096160C94E1165F3FE4F3983ED4F3869553
:102D100077956795B795F795E7959F5FC1F7FE2B78
:102D2000880F911D9695879597F9089597F99F6754
:102D300080E870E060E008959FEF80EC0895002443
:102D40000A941616170618060906089500240A9410
:102D500012161306140605060895092E0394000C96
:102D600011F4882352F0BB0F40F4BF2B11F460FF25
:102D700004C06F5F7F4F8F4F9F4F089557FD90584E
:102D8000440F551F59F05F3F71F04795880F97FB2F
:102D9000991F61F09F3F79F08795089512161306E9
:102DA0001406551FF2CF4695F1DF08C01616170618
:102DB0001806991FF1CF869571056105089408954D
:102DC000E894BB2766277727CB0197F90895F999EF
:102DD000FECF92BD81BDF89A992780B50895262F20
:102DE000F999FECF1FBA92BD81BD20BD0FB6F894F0
:102DF000FA9AF99A0FBE019608952F923F924F9238
:102E00005F926F927F928F929F92AF92BF92CF927A
:102E1000DF92EF92FF920F931F93CF93DF93CDB783
:102E2000DEB7CA1BDB0B0FB6F894DEBF0FBECDBFFB
:102E300009942A88398848885F846E847D848C84CC
:102E40009B84AA84B984C884DF80EE80FD800C81D5
:102E50001B81AA81B981CE0FD11D0FB6F894DEBFB8
:0C2E60000FBECDBFED010895F894FFCF28
:102E6C000100FFFF010001000100FFFFFFFF000058
:102E7C0005068000E8033F065B4F666D7D077F6F9C
:102E8C00777C395E797100000000E500BC08AE006B
:102E9C008C00A0002C0100000000550225021D0230
:102EAC000902FA01F90100000000BA01BC082C0566
:102EBC00A601FA02D90253797374656D2077617398
:102ECC0020737461727465642E0028447C29002878
:102EDC00442D2900287C2900282D290009000D0AE1
:042EEC0000200000C2
:00000001FF
